:020000020000FC
:1000000007C026D021E030E02DD009D019D0FFCF95
:100010000FEF0DBF04E00EBFD1E0C0E0F2CFB22F72
:10002000A32F52E060E0D0E0C0E01D9178E088941A
:10003000111FC61FD61F7A95D1F75A95B1F70895AB
:10004000B1E0A0E0C2E050E05D93CA95E9F7089501
:10005000F0E0E0E9B1E0A0E002E015911D930A951F
:10006000E1F70895B1E0A0E0C3E1D0E050E060E046
:1000700073E0A1E08894D795C795561F88947A13AA
:10008000551F7A95B9F7AC0FBD1F18E0151B0895E1
:040090000515200032
:00000001FF
