:020000020000FC
:1000000019C04CD0B0E0A0E0CFE0D0E02CD0B0E000
:10001000A0E0C8E0D0E063D0B0E0A0E0CFE0D0E066
:1000200065D0B0E0A0E0CFE0D0E068D0B0E0A0E0E4
:1000300008D0FFCF0FEF0DBF04E00EBF80E090E0CF
:10004000E0CF43E050E0D0E0C0E09B2F8A2F6BD0A0
:10005000019668E08894001FC51FD51F6A95D1F7E7
:100060004A95A9F708959B2F8A2F21D040E08A173F
:1000700019F49B1709F407C0042F4BD001968A1777
:10008000D9F79B17C9F7012F502F509508944BD0E3
:1000900005233FD0551F5F3FD1F70895F1E0E4E31A
:1000A00043E0059136D001964A95D9F708954C2F33
:1000B00050E063E071E08894D795C7956A95D9F7C9
:1000C000AC0FBD1F477017E0141B1395889451E0C7
:1000D0005795551F1A958894E1F7152F0895E7DF76
:1000E000012F502F20D0052B14D00895E0DF012FD1
:1000F000502F509518D005230CD00895D8DF012F2C
:10010000502F11D00523003011F068940895E89421
:100110000895F999FECF92BD81BD00BDF894FA9A79
:10012000F99A78940895F999FECF92BD81BDF89A15
:0801300000B5089505FF0F085A
:00000001FF
