:020000020000FC
:0200000012C02C
:020006002FC009
:1000200019C08895FECF0FEF0DBF04E00EBFBB27B0
:10003000AA2743D000E00093690005E003BF01E078
:100040000093680000936B0000936E0001E005BD13
:100050007894E7CF11960FE0A234B00719F4BB27CC
:10006000AA2706D0189505B511E0012705BD1895FA
:10007000D1E0C6E013E00A91093349F400E30883B4
:100080000A91053321F400E308831A95A1F703953B
:10009000088301D00895D1E0C6E014E00A9100334E
:1000A00059F41A95D9F70A91043331F40A910233BD
:1000B00019F400E3099309930895D1E0C0E000E347
:0E00C0000993099309930993099309930895ED
:00000001FF
