:020000020000FC
:02000000FFC03F
:020020000DC110
:020006001CC11B
:100200000FEF0DBF04E00EBF45D000E00093690082
:1002100005E003BF01E00093680000936B000093CA
:100220006E0001E005BD78945FD000C0889532E093
:10023000F1E0E0E046D038D050D0F8CF06D01895A5
:1002400005B511E0012705BD1895D1E0C6E013E022
:100250000A91093349F400E308830A91053321F434
:1002600000E308831A95A1F70395088301D0089548
:10027000D1E0C6E014E00A91003359F41A95D9F799
:100280000A91043331F40A91023319F400E309931B
:1002900009930895D1E0C0E000E30993099309931D
:1002A0000993099309930895429A419800E00AB985
:1002B0000BB9409A09B1409807FDFBCF0FEF0AB97F
:1002C000089541984298409A3BB940980895419AC0
:1002D0004298409A3BB94098089531913F3F19F0B8
:1002E000F6DFE2DFFACF08950FEF0AB907B938E376
:1002F000E8DFDADF31E0E5DFD7DF32E0E2DFD4DF6D
:0203000008955E
:00000001FF
