:020000020000FC
:0200000010C02E
:100020001FC00FEF0DBF04E00EBF01E000936E0094
:1000300001E005BD03BF78943AD088955C33E9F7B9
:10004000112715BDFFCF0F930FB70F931196B23045
:1000500019F4AA27BB2753950F910FBF0F9118953D
:1000600001D01895D1E0C6E013E00A91093349F4B4
:1000700000E308830A91053321F400E308831A950D
:10008000A1F70395088301D00895D1E0C6E014E0FC
:100090000A91003359F41A95D9F70A91043331F4CF
:1000A0000A91023319F400E3099309930895D1E00A
:1000B000C0E000E309930993099309930993099315
:0200C0000895A1
:00000001FF
