:020000020000FC
:0400000010C02AC042
:1000200019C00FEF0DBF04E00EBF3ED05298509A9A
:100030005A9A00E000936900E89A05E003BF01E0E6
:1000400000936E0001E005BD03BF789401E005BD9B
:100050008895FCCF04D01895002705BD1895D1E0F0
:10006000C6E013E00A91093349F400E308830A91DA
:10007000053321F400E308831A95A1F7039508835B
:1000800001D00895D1E0C6E014E00A91003359F49C
:100090001A95D9F70A91043331F40A91023319F40D
:1000A00000E3099309930895D1E0C0E000E30993C8
:0C00B0000993099309930993099308959B
:00000001FF
