:020000020000FC
:0400000010C035C037
:1000200024C00FEF0DBF04E00EBF49D001E00093E4
:100030006B0001E00093680001E003BF01E0009362
:100040006E0001E005BD789401E005BD8895FCCF08
:100050000F930FB70F931196B23019F4AA27BB274D
:1000600053950F910FBF0F91189504D01895002745
:1000700005BD1895D1E0C6E013E00A91093349F4B3
:1000800000E308830A91053321F400E308831A95FD
:10009000A1F70395088301D00895D1E0C6E014E0EC
:1000A0000A91003359F41A95D9F70A91043331F4BF
:1000B0000A91023319F400E3099309930895D1E0FA
:1000C000C0E000E309930993099309930993099305
:0200D000089591
:00000001FF
