:020000020000FC
:1000000008C027D021E030E041D02DD009D019D050
:10001000FFCF0FEF0DBF04E00EBFD1E0C0E0F1CF86
:10002000B22FA32F53E060E0D0E0C0E01D9178E054
:100030008894111FC61FD61F7A95D1F75A95B1F72C
:100040000895B1E0A0E0C3E050E05D93CA95E9F700
:100050000895F0E0E8EAB1E0A0E003E015911D9317
:100060000A95E1F70895B1E0A0E0CCE0D0E05C2F84
:1000700060E073E081E08894D795C7957A95D9F7C9
:10008000AC0FBD1F577018E0151B0895ECDF61E041
:100090008894661F5A95E9F7889467951C91162BEA
:0C00A0001C930895089508950515200094
:00000001FF
