:020000020000FC
:100000001EC04BD0B1E0A0E0C7E0D0E02ED0B1E000
:10001000A0E0C8E0D0E063D0B1E0A0E0C7E0D0E06D
:1000200064D0B1E0A0E0C7E0D0E066D0B1E0A0E0ED
:100030000DD0B1E0A0E0C7E0D0E017D0FFCF0FEFC8
:100040000DBF04E00EBFD1E0C0E0DBCF53E060E0C5
:10005000D0E0C0E01D9178E08894111FC61FD61F24
:100060007A95D1F75A95B1F70895FB2FEA2F1FD053
:1000700050E0EA1719F4FB1709F405C05193EA1789
:10008000E9F7FB17D9F7612F609508941C911623A7
:100090001C93661F6F3FD1F70895F1E0ECE0B1E0EB
:1000A000A0E003E015911D930A95E1F708955C2FF8
:1000B00060E073E081E08894D795C7957A95D9F789
:1000C000AC0FBD1F577017E0151B1395889461E0A6
:1000D0006795661F1A958894E1F7162F0895E7DF54
:1000E000612F1C91162B1C930895E1DF612F609501
:1000F0001C9116231C930895DADF612F1C9116239F
:10010000103011F068940895E894089505FF0F00E9
:00000001FF
